:020000040000FA
:100000008316850186018312031086010030652066
:100010005520452035204520552065204520352098
:10002000752025207520352045206520A1206520DC
:10003000A1206520A1206520A12065205520452014
:10004000352045205520652007289200920ADC3093
:100050008D000610013090200614013090208D0B89
:100060002928920B2728003008009200920AAE300F
:100070008D0006101F30902006141F3090208D0B2D
:100080003928920B3728003008009200920AA430D9
:100090008D000610273090200614273090208D0BFD
:1000A0004928920B4728003008009200920A9230AB
:1000B0008D0006103A30902006143A3090208D0BB7
:1000C0005928920B5728003008009200920A82307B
:1000D0008D0006104F30902006144F3090208D0B6D
:1000E0006928920B6728003008009200920AC430F9
:1000F0008D0006100F30902006140F3090208D0BCD
:100100007928920B7728003008009200920A32304A
:100110009300A920930B8928920B872800300800B0
:100120008C009A208C0B912870308C009A208C0BBC
:10013000962808000F308E00000000008E0B9E28CD
:100140000800A5308F00000000008F0BA5280030AC
:1001500008006330900000000000A120900BAD2843
:02016000080095
:02400E00FA3F77
:00000001FF
